:100000000C944C000C948D040C948D040C948D0471
:100010000C948D040C948D040C948D040C948D041C
:100020000C948D040C948D040C948D040C948D040C
:100030000C948D040C948D040C948D040C948D04FC
:100040000C948D040C948D040C948D040C948D04EC
:100050000C948D040C948D040C948D040C948D04DC
:100060000C948D040C948D04A603A903AC03AF0378
:10007000B203B503B803BB03BE03C1034901590171
:100080006901790189019901A901B901C901D90160
:100090000100010200091E0011241FBECFEFD8E0AD
:1000A000DEBFCDBFE0E9F0E040E017C0B591A5911B
:1000B00035912591059107FD0CC095918591EF0132
:1000C000F92FE82F05900D92A217B307D9F7FE017B
:1000D00004C01D92A217B307E1F7E739F40731F71F
:0C00E0000E94F5020C947400F894FFCF0D
:1000EC002F923F924F925F926F927F928F929F923C
:1000FC00AF92BF92CF92DF92EF92FF920F931F932A
:10010C00CF93DF93CDB7DEB729970FB6F894DEBF48
:10011C000FBECDBF89879F83072E000C880B990BD0
:10012C000E9434036B837C838D839E8320E030E0BC
:10013C004AEF54E40E9486046B017C010E946F0319
:10014C004B015C0120E030E040E85FE3C701B60101
:10015C000E947C0488231CF491E080E002C0982D5E
:10016C00892D99838A8300E010E0AA24A394B12CF2
:10017C0049845F800F2EFAE08F2E912CF02D0F2EDC
:10018C00F8EC6F2E712CF02DC501002E02C0880FDB
:10019C00991F0A94E2F78BB915B8242C352C83E0FF
:1001AC0090E098878F83822D932DB4010E940A04CE
:1001BC00262E372EB8010E94400125B10F8002C0B7
:1001CC00880F991F0A94E2F7822B85B98F81988545
:1001DC00019798878F83019631F720E030E040E853
:1001EC005FE3C701B6010E947C04882304F120E080
:1001FC003FEF4FE757E4C701B6010E948104181680
:10020C00B4F420E030E040E251E46B817C818D81DC
:10021C009E810E9486040E946F036115710559F03E
:10022C00C3010197F1F761507109D1F704C08981BD
:10023C009A810197F1F70F5F1F4F0830110509F0F4
:10024C00A3CF29960FB6F894DEBF0FBECDBFDF91BA
:10025C00CF911F910F91FF90EF90DF90CF90BF90B7
:10026C00AF909F908F907F906F905F904F903F904A
:04027C002F90089522
:100280008A30910508F0A5C0FC01E25CFF4F0C9498
:10029000760421E030E0062E02C0220F331F0A94BC
:1002A000E2F72E77332702C0359527956A95E2F756
:1002B00091C021E030E0062E02C0220F331F0A94C5
:1002C000E2F72073332702C0359527956A95E2F748
:1002D00081C021E030E0062E02C0220F331F0A94B5
:1002E000E2F72D76332702C0359527956A95E2F718
:1002F00071C021E030E0062E02C0220F331F0A94A5
:10030000E2F72977332702C0359527956A95E2F7FA
:1003100061C021E030E0062E02C0220F331F0A9494
:10032000E2F72373332702C0359527956A95E2F7E4
:1003300051C021E030E0062E02C0220F331F0A9484
:10034000E2F72B75332702C0359527956A95E2F7BA
:1003500041C021E030E0062E02C0220F331F0A9474
:10036000E2F72F75332702C0359527956A95E2F796
:1003700031C021E030E0062E02C0220F331F0A9464
:10038000E2F72077332702C0359527956A95E2F783
:1003900021C021E030E0062E02C0220F331F0A9454
:1003A000E2F72F77332702C0359527956A95E2F754
:1003B00011C021E030E0062E02C0220F331F0A9444
:1003C000E2F72B77332702C0359527956A95E2F738
:0A03D00001C00895822F932F0895B5
:1003DA002F923F924F925F926F927F928F929F924B
:1003EA00AF92BF92CF92DF92EF92FF920F931F9339
:1003FA00CF93DF9300D000D000D0CDB7DEB78C0109
:10040A0083E090E09E838D83AA24A394B12C0F2EBF
:10041A00FAE02F2E312CF02D2B01770F6608770882
:10042A000F2EF8EC8F2E912CF02DC5010D8002C0F5
:10043A00880F991F0A94E2F785B9C801B1010E9491
:10044A000A048B010E949E03C301B2010E94340375
:10045A0069837A838B839C8320E030E04AEF54E4FB
:10046A000E9486046B017C0120E030E040E85FE3F3
:10047A000E947C0488232CF120E03FEF4FE757E4E9
:10048A00C701B6010E9481041816B4F420E030E0D6
:10049A0040E251E469817A818B819C810E948604C1
:1004AA000E946F036115710581F0C4010197F1F78C
:1004BA0061507109D1F709C0C701B6010E946F03E3
:1004CA0001C0B501CB010197F1F78D819E8101979A
:1004DA009E838D83019609F0A8CF26960FB6F894CD
:1004EA00DEBF0FBECDBFDF91CF911F910F91FF905D
:1004FA00EF90DF90CF90BF90AF909F908F907F90BA
:0C050A006F905F904F903F902F900895ED
:100516000FC00E94620438F00E94690420F09523FF
:1005260011F00C9470040C948A0411240C945C044D
:100536000E94E80370F3959FC1F3950F50E0551F95
:10054600629FF001729FBB27F00DB11D639FAA2722
:10055600F00DB11DAA1F649F6627B00DA11D661F71
:10056600829F2227B00DA11D621F739FB00DA11D92
:10057600621F839FA00D611D221F749F3327A00D4C
:10058600611D231F849F600D211D822F762F6A2FE8
:1005960011249F5750409AF0F1F088234AF0EE0F4D
:1005A600FF1FBB1F661F771F881F91505040A9F77A
:1005B6009E3F510580F00C9470040C945C045F3FE0
:1005C600E4F3983ED4F3869577956795B795F795B6
:1005D600E7959F5FC1F7FE2B880F911D969587952E
:0405E60097F90895E4
:1005EA001092C1008FEF8AB98BB984B981E085B9BD
:1005FA0017B884E088B90E945004C0E0D0E000E057
:10060A0010E0329B08C06091000170910101C8019D
:10061A000E94ED0107C06091000170910101C801BB
:10062A000E9476002196CA30D10581F40F5F1F4FD0
:10063A000E944304959587959595879595958795F5
:10064A009093010180930001C0E0D0E00F3087E26F
:0A065A001807B9F600E010E0D4CF55
:10066400E89409C097FB3EF4909580957095619548
:100674007F4F8F4F9F4F9923A9F0F92F96E9BB27FE
:100684009395F695879577956795B795F111F8CF7A
:10069400FAF4BB0F11F460FF1BC06F5F7F4F8F4FE5
:1006A4009F4F16C0882311F096E911C0772321F0DB
:1006B4009EE8872F762F05C0662371F096E8862F73
:1006C40070E060E02AF09A95660F771F881FDAF7CA
:0A06D400880F9695879597F9089511
:1006DE000E94F00388F09F5798F0B92F9927B751D1
:1006EE00B0F0E1F0660F771F881F991F1AF0BA95C8
:1006FE00C9F714C0B13091F00E945B04B1E00895C7
:10070E000C945B04672F782F8827B85F39F0B93FB8
:10071E00CCF3869577956795B395D9F73EF490957A
:0E072E008095709561957F4F8F4F9F4F089576
:10073C008A30910510F5FC01EC5CFF4F0C947604AB
:10074C008EE78BB9089580E38BB908958DE68BB94C
:10075C00089589E78BB9089583E38BB908958BE5E8
:10076C008BB908958FE58BB9089580E78BB90895FF
:0C077C008FE78BB908958BE78BB90895C7
:10078800990F0008550FAA0BE0E8FEEF161617069A
:10079800E807F907C0F012161306E407F50798F002
:1007A800621B730B840B950B39F40A2661F0232B1B
:1007B800242B252B21F408950A2609F4A140A69597
:0807C8008FEF811D811D0895D2
:1007D00057FD9058440F551F59F05F3F71F04795F2
:1007E000880F97FB991F61F09F3F79F087950895D7
:1007F000121613061406551FF2CF4695F1DF08C0F6
:10080000161617061806991FF1CF86957105610512
:0408100008940895AB
:1008140097FB072E16F4009407D077FD09D00E94A9
:100824001E0407FC05D03EF4909581959F4F0895D2
:08083400709561957F4F089556
:10083C00AA1BBB1B51E107C0AA1FBB1FA617B707FA
:10084C0010F0A61BB70B881F991F5A95A9F7809516
:08085C009095BC01CD01089547
:10086400092E0394000C11F4882352F0BB0F40F4BA
:10087400BF2B11F460FF04C06F5F7F4F8F4F9F4FFA
:020884000895D5
:10088600EAE7F0E0808180648083808186FDFDCF89
:0A0896008091780090917900089598
:1008A000EAE7F0E080818F688083ECE7F0E0808108
:0608B000876480830895B7
:0E08B600E894BB2766277727CB0197F90895B2
:0E08C40000240A941616170618060906089551
:0E08D20000240A941216130614060506089553
:0C08E00097F99F6780E870E060E00895E1
:0C08EC00EE0FFF1F0590F491E02D099421
:0A08F8000E94C40308F481E0089593
:0A0902000E94C40308F48FEF08956B
:08090C000E948B020C943204DE
:060914009FEF80EC089546
:04091A000C94000039
:02091E000100D6
:00000001FF
